:020000040800F2
:1000000000040020B30E0008D5010008D701000845
:10001000DB010008DF010008E30100080000000028
:10002000000000000000000000000000E7010008E0
:10003000E901000800000000EB010008ED010008E4
:10004000D30E0008D30E0008D30E0008D30E00080C
:10005000D30E0008D30E0008D30E0008D30E0008FC
:10006000D30E0008D30E0008D30E0008D30E0008EC
:10007000D30E0008D30E0008D30E0008D30E0008DC
:10008000D30E0008D30E0008D30E0008D30E0008CC
:10009000D30E0008D30E0008D30E0008D30E0008BC
:1000A000D30E0008D30E0008D30E0008D30E0008AC
:1000B000EF010008D30E0008D30E0008D30E00088D
:1000C000D30E0008D30E0008D30E0008D30E00088C
:1000D000D30E0008AB120008F1010008D30E00088F
:1000E000D30E0008D30E0008D30E0008D30E00086C
:1000F000D30E0008D30E0008D30E0008D30E00085C
:10010000D30E0008D30E0008D30E0008D30E00084B
:10011000D30E0008D30E0008D30E0008D30E00083B
:10012000D30E0008D30E0008D30E0008D30E00082B
:1001300000F002F800F03FF80AA090E8000C8244BA
:100140008344AAF10107DA4501D100F034F8AFF297
:10015000090EBAE80F0013F0010F18BFFB1A43F0A5
:10016000010318473414000054140000103A24BF4F
:1001700078C878C1FAD8520724BF30C830C144BF0C
:1001800004680C607047000000230024002500264E
:10019000103A28BF78C1FBD8520728BF30C148BFEA
:1001A0000B607047642901F0FF80002070471FB585
:1001B0001FBD10B510BD01F0BFF91146FFF7F7FFE5
:1001C00000F07DFF01F0DDF903B4FFF7F2FF03BC9F
:1001D00001F08AF8704700BFFEE700BFFEE700BFEE
:1001E000FEE700BFFEE770477047704770477047F3
:1001F00010B540F22551154800F01EFC20B340F226
:100200002551124800F018FCF0B1104800F0B5FB81
:100210000F49104A127888540E480078401C0D4946
:100220000870084600781E2801DB00200870084886
:10023000407808490978884206D1054840780C285A
:1002400002D101200449087010BD000000440040A4
:100250004E00002016000020170000200CB50020E2
:10026000019000904748006840F48030454908609C
:1002700000BF4448006800F4003000900198401C22
:100280000190009818B90198B0F5A06FF1D13D48E0
:10029000006800F4003010B10120009001E000205F
:1002A00000900098012844D13748006840F01000C1
:1002B000354908600846006820F0030008600846D9
:1002C000006840F0020008602E4840682D494860F0
:1002D0000846406848600846406840F480604860CE
:1002E0000846406820F47C1048600846406840F4A6
:1002F000E81048600846006840F08070086000BF61
:100300002048006800F000700028F9D01D484068BF
:1003100020F003001B4948600846406840F0020096
:10032000486000BF1748406800F00C000828F9D169
:1003300001E000BFFEE70CBD10B5FFF78FFF10BD59
:1003400010B51048006840F001000E4908600846EA
:1003500040680E4908400B494860084600680C494F
:100360000840084908600846006820F480200860BA
:100370000846406820F4FE00486000208860FFF7CF
:10038000DBFF10BD00100240002002400000FFF81B
:10039000FFFFF6FEDE48006840F00100DC4908601F
:1003A00008464068DB490840D9494860084600686B
:1003B000D9490840D64908600846006820F48020E2
:1003C00008600846406820F4FE004860002088600D
:1003D0007047CF49096821F48031CD4A1160114638
:1003E000096821F480211160B0F5803F03D0B0F599
:1003F000802F0ED106E0C649096841F48031C44A15
:10040000116007E0C249096841F4A021C04A1160A7
:1004100000E000BF00BF704710B501460022002376
:1004200000204A11012A02D1B94C236806E0022AB1
:1004300002D1B74C236A01E0B54C636A01F01F0298
:10044000012494401C400CB1012000E0002010BDAC
:1004500038B5002000900024002500BF3120FFF7B0
:10046000DBFF05460098401C00901DB90098B0F5D0
:10047000A06FF3D13120FFF7CFFF08B1012400E0D6
:100480000024204638BD01460020A14A106820F013
:10049000F80040EAC10010607047A049086070474A
:1004A000024600209A4B586820F47C1042EA01036F
:1004B0001843974B58607047984908667047014643
:1004C0000020934A506820F00300084350607047B2
:1004D0008F48406800F00C007047014600208C4AAD
:1004E000506820F0F000084350607047014600203B
:1004F000874A506820F4E060084350607047014626
:100500000020834A506820F4605040EAC1005060E7
:10051000704729B17E4A527A02437D4B5A7204E0F9
:100520007B4A527A82437A4B5A7270477B49D83160
:100530000860704701460020754A506820F440402A
:100540000843506070470021714A20321170704A90
:1005500082F82010012802D004280AD104E00121E9
:100560006B4A2032117005E00521694A2032117072
:1005700000E000BF00BF70476949086070476449E8
:10058000096A0143624A116270476549443908604B
:10059000704730B500210022002400235C4D6D68B7
:1005A00005F00C0121B1042905D0082923D105E06B
:1005B0005C4D056022E05B4D05601FE0544D6D68A9
:1005C00005F47012022505EB9242514D6D6805F459
:1005D00080341CB9544D554305600BE04C4D6D689B
:1005E00005F400351DB1504D5543056002E04D4DF9
:1005F0005543056002E04B4D056000BF00BF444D10
:100600006D6805F0F0010909484D6B5C0568DD4037
:1006100045603F4D6D6805F4E061090A434D6B5C30
:100620004568DD4085603A4D6D6805F46051C90A42
:100630003E4D6B5C4568DD40C560354D6D6805F429
:100640004041890B3A4D6B5CC568B5FBF3F505611C
:1006500030BD29B12E4A526902432D4B5A6104E044
:100660002B4A526982432A4B5A61704729B1284A62
:1006700092690243264B9A6104E0254A92698243BB
:10068000234B9A61704729B1214AD2690243204B1A
:10069000DA6104E01E4AD26982431D4BDA61704779
:1006A00029B11B4AD2680243194BDA6004E0184AA8
:1006B000D2688243164BDA60704729B1144A126936
:1006C0000243134B1A6104E0114A12698243104B32
:1006D0001A61704712494039086070470F49C86471
:1006E00070470B49C87170470948406A40F08070F4
:1006F00007494862704701460020054A92680A404F
:100700000AB1012000E0002070470149887270475B
:10071000001002400000FFF8FFFFF6FE000042421A
:100720008004424200127A0000093D0000000020CF
:100730001000002010B50446D749601A8C422BD017
:1007400006DCD648204498B1B0F5806F38D119E066
:10075000B0F5806F2AD0B0F56C4F31D101218803FC
:10076000FFF79EFF00214FF48040FFF799FF28E03C
:1007700001214804FFF7A1FF00214FF40030FFF7EB
:100780009CFF1EE001218804FFF797FF00214FF432
:100790008020FFF792FF14E00121C804FFF78DFFCE
:1007A00000214FF40020FFF788FF0AE0012108052F
:1007B000FFF783FF00214FF48010FFF77EFF00E07A
:1007C00000BF00BF10BD2DE9F04786B005460E46BC
:1007D0000024A24600BF00BF00272F462C8A4CF6FB
:1007E000FF700440F08804432C82AC894EF6F3106D
:1007F0000440B08831890843718908430443AC81BF
:10080000AC8A4FF6FF400440B0890443AC8201A893
:10081000FFF7BFFEA248874202D1DDF810A001E039
:10082000DDF80CA00AEBCA0000EB0A103168890061
:10083000B0FBF1F86420B8FBF0F00401200964215A
:1008400001FB1089322000EB0910B0FBF1F000F041
:100850000F0004432C8106B0BDE8F0874FF4165119
:10086000016000218180C18001810C214181002132
:100870008181704710B502460020108A4FF2FF03B5
:1008800018400B884C8823438C882343CC8823430F
:100890001843108210BD0021018041808180C180F9
:1008A000704721B1828942F40052828104E082893A
:1008B0004DF6FF731A4082817047F0B5034600245D
:1008C0000026002500201846C1F3421401F01F063F
:1008D000012707FA06F5012C01D10C3004E0022CA7
:1008E00001D1103000E014301AB107682F430760BF
:1008F00002E00768AF430760F0BD1AB1838A0B437B
:10090000838202E0838A8B4383827047028A4FF698
:10091000F0731A400282028A0A4302827047828977
:100920004FF2FF731A40828182890A4382817047A5
:1009300021B1828942F00202828104E082894FF66D
:10094000FD731A4082817047028A4FF6DF731A40A6
:100950000282028A0A430282704721B1028A42F46B
:100960008042028204E0028A4BF6FF731A40028240
:100970007047C1F308028280704701468888C0F33F
:1009800008007047818941F0010181817047028B25
:10099000D2B20283028B42EA012202837047028BA9
:1009A00002F47F420283028B0A430283704721B123
:1009B000828A42F02002828204E0828A4FF6DF734C
:1009C0001A408282704721B1828A42F010028282EC
:1009D00004E0828A4FF6EF731A408282704721B199
:1009E000828A42F00802828204E0828A4FF6F7731C
:1009F0001A4082827047828A4FF6FB731A408282C5
:100A0000828A0A438282704721B1828A42F00202BE
:100A1000828204E0828A4FF6FD731A408282704718
:100A20000246002013880B400BB1012000E000209B
:100A30007047CA430280704770B502460B460024D7
:100A4000002100250020C3F3421503F01F010126F9
:100A500006FA01F1012D02D19689314006E0022DFE
:100A600002D1168A314001E0968A31401C120126DB
:100A700006FA04F41688344011B10CB1012000E0EC
:100A8000002070BD10B5002200230A1201249440FA
:100A9000A3B2DC43048010BD004C004000BCFFBF8B
:100AA0000038014031490143314A1160704770B547
:100AB000002100230F22C47804B32D4C246804F4D1
:100AC000E064C4F5E064210AC1F10403CA4044783B
:100AD00004FA03F18478144021430901254C067877
:100AE000A155047804F01F050124AC4005786D1170
:100AF000AD0005F1E025C5F8004109E0047804F0F7
:100B00001F050124AC401C4D0678761145F826409F
:100B100070BD1A4A0A400243154B1B1F1A607047EA
:100B200039B1134A121D12680243114B1B1D1A6082
:100B300006E00F4A121D126882430D4B1B1D1A60FE
:100B40007047042808D14FF0E021096941F0040101
:100B50004FF0E022116107E04FF0E021096921F038
:100B600004014FF0E0221161704700000000FA0517
:100B70000CED00E000E400E080E100E080FFFF1FFA
:100B800010B50446C649601A8C422FD009DCC5480E
:100B9000204480B1B0F5806F16D0B0F5006F4AD117
:100BA0001BE0B0F5806F2AD0B0F5006F30D0B0F503
:100BB000406F40D135E001210420FFF771FD002195
:100BC0000420FFF76DFD37E001210820FFF768FDE5
:100BD00000210820FFF764FD2EE001211020FFF71F
:100BE0005FFD00211020FFF75BFD25E001212020A3
:100BF000FFF756FD00212020FFF752FD1CE00121E8
:100C00004020FFF74DFD00214020FFF749FD13E094
:100C100001218020FFF744FD00218020FFF740FDE7
:100C20000AE001210802FFF73BFD00214FF480702C
:100C3000FFF736FD00E000BF00BF10BD10B5012179
:100C40000846FFF72DFD00210120FFF729FD10BD0B
:100C50002DE9F04102460025002600200023002453
:100C6000002791F803C00CF00F0591F803C00CF0B9
:100C7000100CBCF1000F03D091F802C04CEA05053E
:100C800091F800C0BCF1000F31D0146800202BE0B7
:100C90004FF0010C0CFA00F3B1F800C00CEA0306A7
:100CA0009E4220D183004FF00F0C0CFA03F7BC4397
:100CB00005FA03FC4CEA040491F803C0BCF1280FC8
:100CC00006D14FF0010C0CFA00FCC2F814C00AE087
:100CD00091F803C0BCF1480F05D14FF0010C0CFA9C
:100CE00000FCC2F810C0401C0828D1D31460B1F831
:100CF00000C0BCF1FF0F34DD546800202EE000F18D
:100D0000080C4FF0010808FA0CF3B1F800C00CEA27
:100D100003069E4221D183004FF00F0C0CFA03F71B
:100D2000BC4305FA03FC4CEA040491F803C0BCF18F
:100D3000280F05D100F1080C08FA0CF8C2F814804D
:100D400091F803C0BCF1480F07D100F1080C4FF037
:100D5000010808FA0CF8C2F81080401C0828CED30D
:100D60005460BDE8F0814FF6FF710180022181706F
:100D70000421C17070470246002093680B400BB1FC
:100D8000012000E0002070470146886880B270476B
:100D900002460020D3680B400BB1012000E0002088
:100DA00070470146C86880B2704701617047416171
:100DB00070470AB1016100E041617047C16070474E
:100DC0004FF480320A438261816182618269826963
:100DD000704702460020344B18684FF68073184065
:100DE00040EA02100843304B186070472F49C86131
:100DF0007047F0B50A4600230024002100252A4E42
:100E00007168C0F3034583B200F44016B6F5401F85
:100E100008D121F07061244E766826F07066224F6A
:100E20007E6012E000F48016B6F5801F06D103261E
:100E300006FA05F4A14341F0706106E0460D360163
:100E400003FA06F6B14341F0706122B1460D360156
:100E500003FA06F63143144E7160F0BD30B500223E
:100E60008B071C0F0F2303FA04F20F4B08338C106F
:100E700053F8243093430C4C08348D1044F825303B
:100E800023468C1053F824308C07240F00FA04F406
:100E90002343054C08348D1044F8253030BD000044
:100EA0000014014000F8FEBF000001400000204295
:100EB00070470B4880470B4981F308880A48004770
:100EC000FEE7FEE7FEE7FEE7FEE7FEE7FEE7FEE7FA
:100ED000FEE7FEE705480649044A064B7047000056
:100EE000B10E0008600400203101000860020020FB
:100EF00060040020600200201CB500214FF000605B
:100F0000FFF707FE4FF4C060FFF7CCFD25208DF8FA
:100F1000040001208DF8050000208DF80600012056
:100F20008DF8070001A8FFF7C2FD26208DF800000C
:100F300002208DF8010000208DF8020001208DF8BC
:100F400003006846FFF7B3FD1CBD01B502E0009841
:100F5000401E009000980028F9D108BD70B50546E4
:100F60000E4600240CE0295D8348FFF702FD00BF18
:100F700080218148FFF754FD0028F9D0601CC4B2DD
:100F8000B442F0DB70BD70B505460E4600240CE09F
:100F9000295D7A48FFF7EDFC00BF80217748FFF715
:100FA0003FFD0028F9D0601CC4B2B442F0DB70BD34
:100FB00010B502460023002403E0105D4340601C8E
:100FC000C4B2481EA042F8DCD843C3B2481E105C2D
:100FD000984201D1002010BD0120FCE77EB50546F6
:100FE000012667480078002844DD6648FFF7ADFF1A
:100FF0006548007801282FD100206349087000243B
:1010000005E06248005D0DF80400601CC4B20C2CC1
:10101000F7DB0C216846FFF7CBFFE8B99DF8040029
:10102000D0B99DF80000042816D19DF801000C28C5
:1010300012D19DF8020002280ED19DF8030020284D
:101040000AD1002405E0E01D1DF800002855601CB1
:10105000C4B2042CF7DB0026002404E000204B4936
:101060000855601CC4B2464800788442F6DB002074
:101070004349087030467EBD10B502460B4600213C
:1010800019E0107813F82140A04213D1507803EBF7
:1010900081046478A0420DD1907803EB8104A47898
:1010A000A04207D1D07803EB8104E478A04201D1BB
:1010B000002010BD491C6429E3DB0120F9E708B5D5
:1010C0000024FFF73DF9FFF717FF00F083F830A089
:1010D00000F02AF937A000F027F9002036490870FF
:1010E00029490870354908702549087043E03EE0F9
:1010F0006846FFF773FF054631496846FFF7BCFFB6
:1011000040B330480088401EA04223DD00202E4915
:1011100008601BE02D480068012808D1641C0020ED
:101120002A4908602A480068401C29490860264965
:1011300009681DF80100224901EB8401224A126866
:10114000885421480068401C1F4908601E480068F8
:101150000428DFDB5DB901201C4908601849684696
:10116000FFF78AFF18B904216846FFF7F7FE154814
:1011700000880028BCD1BAE7003801400044004094
:1011800016000020F0490200170000204E00002049
:10119000C7EBCECAD2AAC2BCC8EBBCB8D5C5BFA8E3
:1011A000A3BFBFA8B5C4CAFDC1BFB2BBD0A1D3DA2B
:1011B000320000000A00000015000020140000208A
:1011C0006C00002028000020180000201C000020D7
:1011D0002400002000B585B04FF416500090002088
:1011E000ADF80400ADF80600ADF80800ADF80C004D
:1011F0000C20ADF80A0001210520FFF737FA012184
:101200008803FFF733FA01214804FFF73CFA4FF453
:101210000070ADF8100018208DF8130003208DF831
:10122000120004A93A48FFF713FD4FF48060ADF8AF
:10123000100048208DF8130004A93548FFF708FD79
:101240000420ADF8100018208DF8130003208DF84D
:10125000120004A92E48FFF7FBFC0820ADF810008F
:1012600048208DF8130004A92948FFF7F1FC6946CE
:101270002848FFF7A8FA69462748FFF7A4FA012291
:1012800040F225512348FFF718FB012240F2255177
:101290002148FFF712FB01211E48FFF702FB012145
:1012A0001D48FFF7FEFA05B000BD10B540F225510C
:1012B0001848FFF7C1FBB0B1002240F22551154894
:1012C000FFF7FBFA1348FFF758FB30381349088043
:1012D0000846018812A000F027F8012240F22551AB
:1012E0000C48FFF7EAFA10BD014600BF704770B521
:1012F00004460D46E1B20748FFF73BFB00BF8021E3
:101300000448FFF78DFB0028F9D0204670BD00008F
:10131000000801400038014000440040280000203F
:1013200025640000704700000FB4044910B503AAFB
:10133000029800F0D3F810BC5DF814FB2C000020DC
:101340002DE9F0410E460446002020622046E16867
:10135000884730B3252805D0D4E901219047206A79
:10136000401CF2E7E168204600278847050018D0B6
:10137000A5F14100192802D820354FF40067324604
:10138000294620462760FEF70DFF40B1012804D012
:10139000F61D26F007060836D8E7361DD6E728469C
:1013A000DAE7206ABDE8F0812DE9F0410646002425
:1013B00010687529314616A510D0AFF300800028BB
:1013C00002DA404213A507E031688A0701D512A569
:1013D00002E0490704D511A5012401E0AFF3008024
:1013E00000210A2206F1240709E0B0FBF2FCB0FB61
:1013F000F2F302FB1C00303078541846491C0028D8
:10140000F3D123462A463046BDE8F04100F00CB83F
:10141000000000002D0000002B0000002000000054
:1014200070477047704770472DE9F0470D46994661
:101430009246044600F124080168880604D5E06954
:1014400021F01001216000E00120A84201DD471BCE
:1014500000E00027A1697A1902EB0900081AA061CF
:101460002078C00602D42046AFF30080002608E0B2
:10147000D4E901211AF806009047206A401C761C26
:1014800020624E45F4DB2078C0060AD52046AFF333
:10149000008006E0D4E9012130209047206A401CFA
:1014A0002062381EA7F10107F4DC07E0D4E901212E
:1014B00018F805009047206A401C2062281EA5F1FC
:1014C0000105F3DC2046AFF300802078000602D54A
:1014D0000220BDE8F0870120FBE70000074B70B554
:1014E0000D467B4400F011F80446284600F020F831
:1014F00010B14FF0FF3070BD204670BD09FEFFFFF8
:1015000001694A1C02610878704700B58FB0CDE9C7
:1015100001310021059105497944CDE903101146B7
:101520006846FFF70DFF0FB000BD0000E5FFFFFFAD
:10153000007B00F080007047754600F029F8AE4649
:1015400005006946534620F00700854618B020B5CF
:10155000FFF7C0FCBDE820404FF000064FF0000749
:101560004FF000084FF0000B21F00701AC46ACE84B
:10157000C009ACE8C009ACE8C009ACE8C0098D46B8
:1015800070470446AFF300802046FEF71DFE0000C2
:1015900000487047FC010020B8150008000000203A
:1015A000300000006C010008E81500083000002041
:1015B000300400008801000800000000010203045C
:1015C00001020304060708090204060800000000DF
:1015D000000000000000000000000000000000000B
:0815E000000000000000000003
:0400000508000131BD
:00000001FF
